{
  "address": "0x51E3bCbE694964EDD2dB80DF545bDAd5FbdF9B7b",
  "abi": [
    {
      "inputs": [
        {
          "internalType": "address",
          "name": "firstOwner",
          "type": "address"
        }
      ],
      "stateMutability": "nonpayable",
      "type": "constructor"
    },
    {
      "anonymous": false,
      "inputs": [
        {
          "indexed": true,
          "internalType": "address",
          "name": "generator",
          "type": "address"
        },
        {
          "indexed": false,
          "internalType": "bool",
          "name": "added",
          "type": "bool"
        }
      ],
      "name": "GeneratorSet",
      "type": "event"
    },
    {
      "anonymous": false,
      "inputs": [
        {
          "indexed": true,
          "internalType": "address",
          "name": "previousOwner",
          "type": "address"
        },
        {
          "indexed": true,
          "internalType": "address",
          "name": "newOwner",
          "type": "address"
        }
      ],
      "name": "OwnershipTransferred",
      "type": "event"
    },
    {
      "anonymous": false,
      "inputs": [
        {
          "indexed": true,
          "internalType": "address",
          "name": "generator",
          "type": "address"
        },
        {
          "indexed": true,
          "internalType": "address",
          "name": "sink",
          "type": "address"
        },
        {
          "indexed": false,
          "internalType": "bool",
          "name": "added",
          "type": "bool"
        }
      ],
      "name": "SinkSet",
      "type": "event"
    },
    {
      "anonymous": false,
      "inputs": [
        {
          "indexed": true,
          "internalType": "address",
          "name": "generator",
          "type": "address"
        },
        {
          "indexed": true,
          "internalType": "address",
          "name": "source",
          "type": "address"
        },
        {
          "indexed": false,
          "internalType": "bool",
          "name": "added",
          "type": "bool"
        }
      ],
      "name": "SourceSet",
      "type": "event"
    },
    {
      "anonymous": false,
      "inputs": [
        {
          "indexed": true,
          "internalType": "uint256",
          "name": "lootId",
          "type": "uint256"
        },
        {
          "indexed": true,
          "internalType": "address",
          "name": "sourceOrSink",
          "type": "address"
        },
        {
          "indexed": false,
          "internalType": "uint256",
          "name": "previousAmount",
          "type": "uint256"
        },
        {
          "indexed": false,
          "internalType": "uint256",
          "name": "newAmount",
          "type": "uint256"
        }
      ],
      "name": "XP",
      "type": "event"
    },
    {
      "inputs": [
        {
          "internalType": "uint256",
          "name": "lootId",
          "type": "uint256"
        },
        {
          "internalType": "uint256",
          "name": "amount",
          "type": "uint256"
        }
      ],
      "name": "addXP",
      "outputs": [
        {
          "internalType": "bool",
          "name": "",
          "type": "bool"
        }
      ],
      "stateMutability": "nonpayable",
      "type": "function"
    },
    {
      "inputs": [
        {
          "internalType": "address",
          "name": "",
          "type": "address"
        }
      ],
      "name": "generator",
      "outputs": [
        {
          "internalType": "bool",
          "name": "",
          "type": "bool"
        }
      ],
      "stateMutability": "view",
      "type": "function"
    },
    {
      "inputs": [],
      "name": "owner",
      "outputs": [
        {
          "internalType": "address",
          "name": "",
          "type": "address"
        }
      ],
      "stateMutability": "view",
      "type": "function"
    },
    {
      "inputs": [
        {
          "internalType": "uint256",
          "name": "lootId",
          "type": "uint256"
        },
        {
          "internalType": "uint256",
          "name": "amount",
          "type": "uint256"
        }
      ],
      "name": "removeXP",
      "outputs": [
        {
          "internalType": "bool",
          "name": "",
          "type": "bool"
        }
      ],
      "stateMutability": "nonpayable",
      "type": "function"
    },
    {
      "inputs": [],
      "name": "renounceOwnership",
      "outputs": [],
      "stateMutability": "nonpayable",
      "type": "function"
    },
    {
      "inputs": [
        {
          "internalType": "address",
          "name": "generatorToSet",
          "type": "address"
        },
        {
          "internalType": "bool",
          "name": "add",
          "type": "bool"
        }
      ],
      "name": "setGenerator",
      "outputs": [],
      "stateMutability": "nonpayable",
      "type": "function"
    },
    {
      "inputs": [
        {
          "internalType": "address",
          "name": "sink",
          "type": "address"
        },
        {
          "internalType": "bool",
          "name": "add",
          "type": "bool"
        }
      ],
      "name": "setSink",
      "outputs": [],
      "stateMutability": "nonpayable",
      "type": "function"
    },
    {
      "inputs": [
        {
          "internalType": "address",
          "name": "source",
          "type": "address"
        },
        {
          "internalType": "bool",
          "name": "add",
          "type": "bool"
        }
      ],
      "name": "setSource",
      "outputs": [],
      "stateMutability": "nonpayable",
      "type": "function"
    },
    {
      "inputs": [
        {
          "internalType": "address",
          "name": "newOwner",
          "type": "address"
        }
      ],
      "name": "transferOwnership",
      "outputs": [],
      "stateMutability": "nonpayable",
      "type": "function"
    },
    {
      "inputs": [
        {
          "internalType": "uint256",
          "name": "",
          "type": "uint256"
        }
      ],
      "name": "xp",
      "outputs": [
        {
          "internalType": "uint256",
          "name": "",
          "type": "uint256"
        }
      ],
      "stateMutability": "view",
      "type": "function"
    },
    {
      "inputs": [
        {
          "internalType": "address",
          "name": "",
          "type": "address"
        }
      ],
      "name": "xpDestroyed",
      "outputs": [
        {
          "internalType": "uint256",
          "name": "",
          "type": "uint256"
        }
      ],
      "stateMutability": "view",
      "type": "function"
    },
    {
      "inputs": [
        {
          "internalType": "address",
          "name": "",
          "type": "address"
        }
      ],
      "name": "xpGenerated",
      "outputs": [
        {
          "internalType": "uint256",
          "name": "",
          "type": "uint256"
        }
      ],
      "stateMutability": "view",
      "type": "function"
    },
    {
      "inputs": [
        {
          "internalType": "address",
          "name": "",
          "type": "address"
        }
      ],
      "name": "xpSink",
      "outputs": [
        {
          "internalType": "bool",
          "name": "",
          "type": "bool"
        }
      ],
      "stateMutability": "view",
      "type": "function"
    },
    {
      "inputs": [
        {
          "internalType": "address",
          "name": "",
          "type": "address"
        }
      ],
      "name": "xpSource",
      "outputs": [
        {
          "internalType": "bool",
          "name": "",
          "type": "bool"
        }
      ],
      "stateMutability": "view",
      "type": "function"
    }
  ],
  "transactionHash": "0x96211c7f50181c72faf428eaa695ef2ff897d2885e6aac8184fbf0f764d283a7",
  "args": [
    "0xdcA9d1FA839bB9Fe65DDC4de5161BCA43751D4B4"
  ],
  "solcInputHash": "275da369eec1688a55686161aa4a449d",
  "bytecode": "0x608060405234801561001057600080fd5b50604051610c57380380610c5783398101604081905261002f9161007e565b600080546001600160a01b0319166001600160a01b03831690811782556040518392907f8be0079c531659141344cd1fd0a4f28419497f9722a3daafe3b4186f6b6457e0908290a350506100ae565b60006020828403121561009057600080fd5b81516001600160a01b03811681146100a757600080fd5b9392505050565b610b9a806100bd6000396000f3fe608060405234801561001057600080fd5b50600436106100ea5760003560e01c80638da5cb5b1161008c578063a454265311610066578063a454265314610223578063a86ee72414610246578063e132a49c14610259578063f2fde38b1461026c57600080fd5b80638da5cb5b146101c857806394b69ffa146101f0578063a23ae9c31461021057600080fd5b8063443b43c7116100c8578063443b43c71461016a5780635146ea0e1461018d5780636ff726c2146101a0578063715018a6146101c057600080fd5b80633a34f8df146100ef57806340b197f31461012757806343c1cce31461013c575b600080fd5b6101126100fd366004610a8d565b60056020526000908152604090205460ff1681565b60405190151581526020015b60405180910390f35b61013a610135366004610aaf565b61027f565b005b61015c61014a366004610a8d565b60026020526000908152604090205481565b60405190815260200161011e565b610112610178366004610a8d565b60066020526000908152604090205460ff1681565b61011261019b366004610b04565b6103ac565b61015c6101ae366004610a8d565b60036020526000908152604090205481565b61013a6104c2565b60005460405173ffffffffffffffffffffffffffffffffffffffff909116815260200161011e565b61015c6101fe366004610aeb565b60016020526000908152604090205481565b61013a61021e366004610aaf565b6105b2565b610112610231366004610a8d565b60046020526000908152604090205460ff1681565b610112610254366004610b04565b6106d2565b61013a610267366004610aaf565b6107ce565b61013a61027a366004610a8d565b6108d9565b3360009081526006602052604090205460ff16806102b4575060005473ffffffffffffffffffffffffffffffffffffffff1633145b61031f576040517f08c379a000000000000000000000000000000000000000000000000000000000815260206004820152600b60248201527f4e4f545f414c4c4f57454400000000000000000000000000000000000000000060448201526064015b60405180910390fd5b73ffffffffffffffffffffffffffffffffffffffff821660008181526004602090815260409182902080547fffffffffffffffffffffffffffffffffffffffffffffffffffffffffffffff0016851515908117909155915191825233917f1a8e734eae6190a28fd801ddd48a674ce89fbbc38d8ad604f23536d3fbfc023b91015b60405180910390a35050565b3360009081526004602052604081205460ff16156104b8576000838152600160205260409020548281018181101561040157507fffffffffffffffffffffffffffffffffffffffffffffffffffffffffffffffff5b6000858152600160209081526040918290208390558151848152908101839052339187917f0b6ca08db4114879e2aace0476ef988401a82cdd009b620a0e118b0101f7f10c910160405180910390a361045a8282610b26565b336000908152600260205260409020549094509150508083018181101561049e57507fffffffffffffffffffffffffffffffffffffffffffffffffffffffffffffffff5b3360009081526002602052604090205550600190506104bc565b5060005b92915050565b60005473ffffffffffffffffffffffffffffffffffffffff163314610543576040517f08c379a000000000000000000000000000000000000000000000000000000000815260206004820152600960248201527f4e4f545f4f574e455200000000000000000000000000000000000000000000006044820152606401610316565b6000805460405173ffffffffffffffffffffffffffffffffffffffff909116907f8be0079c531659141344cd1fd0a4f28419497f9722a3daafe3b4186f6b6457e0908390a3600080547fffffffffffffffffffffffff0000000000000000000000000000000000000000169055565b3360009081526006602052604090205460ff16806105e7575060005473ffffffffffffffffffffffffffffffffffffffff1633145b61064d576040517f08c379a000000000000000000000000000000000000000000000000000000000815260206004820152600b60248201527f4e4f545f414c4c4f5745440000000000000000000000000000000000000000006044820152606401610316565b73ffffffffffffffffffffffffffffffffffffffff821660008181526005602090815260409182902080547fffffffffffffffffffffffffffffffffffffffffffffffffffffffffffffff0016851515908117909155915191825233917f610d1ba15bb4834937633799be4b1548190a3d464eb2b7dec53fdfe836a1257291016103a0565b3360009081526005602052604081205460ff16156104b857600083815260016020526040812054908184111561070a57506000610717565b6107148483610b26565b90505b6000858152600160209081526040918290208390558151848152908101839052339187917f0b6ca08db4114879e2aace0476ef988401a82cdd009b620a0e118b0101f7f10c910160405180910390a36107708183610b26565b33600090815260036020526040902054909450915050808301818110156107b457507fffffffffffffffffffffffffffffffffffffffffffffffffffffffffffffffff5b3360009081526003602052604090205550600190506104bc565b60005473ffffffffffffffffffffffffffffffffffffffff16331461084f576040517f08c379a000000000000000000000000000000000000000000000000000000000815260206004820152600b60248201527f4e4f545f414c4c4f5745440000000000000000000000000000000000000000006044820152606401610316565b73ffffffffffffffffffffffffffffffffffffffff821660008181526006602090815260409182902080547fffffffffffffffffffffffffffffffffffffffffffffffffffffffffffffff001685151590811790915591519182527f761b3c12c46f3d4fd57233b393bdf3193e32c4d813978a5f715d6a1dbde0d424910160405180910390a25050565b60005473ffffffffffffffffffffffffffffffffffffffff16331461095a576040517f08c379a000000000000000000000000000000000000000000000000000000000815260206004820152600960248201527f4e4f545f4f574e455200000000000000000000000000000000000000000000006044820152606401610316565b73ffffffffffffffffffffffffffffffffffffffff81166109d7576040517f08c379a000000000000000000000000000000000000000000000000000000000815260206004820152600c60248201527f5a45524f5f4144445245535300000000000000000000000000000000000000006044820152606401610316565b6000805460405173ffffffffffffffffffffffffffffffffffffffff808516939216917f8be0079c531659141344cd1fd0a4f28419497f9722a3daafe3b4186f6b6457e091a3600080547fffffffffffffffffffffffff00000000000000000000000000000000000000001673ffffffffffffffffffffffffffffffffffffffff92909216919091179055565b803573ffffffffffffffffffffffffffffffffffffffff81168114610a8857600080fd5b919050565b600060208284031215610a9f57600080fd5b610aa882610a64565b9392505050565b60008060408385031215610ac257600080fd5b610acb83610a64565b915060208301358015158114610ae057600080fd5b809150509250929050565b600060208284031215610afd57600080fd5b5035919050565b60008060408385031215610b1757600080fd5b50508035926020909101359150565b600082821015610b5f577f4e487b7100000000000000000000000000000000000000000000000000000000600052601160045260246000fd5b50039056fea2646970667358221220a706f8985e4227629be31faa32f49425333fc1c25e1cc4105a14e5bd357c345264736f6c63430008070033",
  "devdoc": {
    "kind": "dev",
    "methods": {},
    "version": 1
  },
  "userdoc": {
    "kind": "user",
    "methods": {},
    "version": 1
  },
  "storageLayout": {
    "storage": [
      {
        "astId": 3,
        "contract": "src/LootXP.sol:LootXP",
        "label": "_owner",
        "offset": 0,
        "slot": "0",
        "type": "t_address"
      },
      {
        "astId": 134,
        "contract": "src/LootXP.sol:LootXP",
        "label": "xp",
        "offset": 0,
        "slot": "1",
        "type": "t_mapping(t_uint256,t_uint256)"
      },
      {
        "astId": 138,
        "contract": "src/LootXP.sol:LootXP",
        "label": "xpGenerated",
        "offset": 0,
        "slot": "2",
        "type": "t_mapping(t_address,t_uint256)"
      },
      {
        "astId": 142,
        "contract": "src/LootXP.sol:LootXP",
        "label": "xpDestroyed",
        "offset": 0,
        "slot": "3",
        "type": "t_mapping(t_address,t_uint256)"
      },
      {
        "astId": 146,
        "contract": "src/LootXP.sol:LootXP",
        "label": "xpSource",
        "offset": 0,
        "slot": "4",
        "type": "t_mapping(t_address,t_bool)"
      },
      {
        "astId": 150,
        "contract": "src/LootXP.sol:LootXP",
        "label": "xpSink",
        "offset": 0,
        "slot": "5",
        "type": "t_mapping(t_address,t_bool)"
      },
      {
        "astId": 154,
        "contract": "src/LootXP.sol:LootXP",
        "label": "generator",
        "offset": 0,
        "slot": "6",
        "type": "t_mapping(t_address,t_bool)"
      }
    ],
    "types": {
      "t_address": {
        "encoding": "inplace",
        "label": "address",
        "numberOfBytes": "20"
      },
      "t_bool": {
        "encoding": "inplace",
        "label": "bool",
        "numberOfBytes": "1"
      },
      "t_mapping(t_address,t_bool)": {
        "encoding": "mapping",
        "key": "t_address",
        "label": "mapping(address => bool)",
        "numberOfBytes": "32",
        "value": "t_bool"
      },
      "t_mapping(t_address,t_uint256)": {
        "encoding": "mapping",
        "key": "t_address",
        "label": "mapping(address => uint256)",
        "numberOfBytes": "32",
        "value": "t_uint256"
      },
      "t_mapping(t_uint256,t_uint256)": {
        "encoding": "mapping",
        "key": "t_uint256",
        "label": "mapping(uint256 => uint256)",
        "numberOfBytes": "32",
        "value": "t_uint256"
      },
      "t_uint256": {
        "encoding": "inplace",
        "label": "uint256",
        "numberOfBytes": "32"
      }
    }
  }
}